{
  "contractName": "Voting",
  "abi": [
    {
      "constant": true,
      "inputs": [
        {
          "name": "",
          "type": "bytes32"
        }
      ],
      "name": "votesReceived",
      "outputs": [
        {
          "name": "",
          "type": "uint8"
        }
      ],
      "payable": false,
      "stateMutability": "view",
      "type": "function"
    },
    {
      "constant": true,
      "inputs": [],
      "name": "totalTokens",
      "outputs": [
        {
          "name": "",
          "type": "uint256"
        }
      ],
      "payable": false,
      "stateMutability": "view",
      "type": "function"
    },
    {
      "constant": true,
      "inputs": [],
      "name": "tokenPrice",
      "outputs": [
        {
          "name": "",
          "type": "uint256"
        }
      ],
      "payable": false,
      "stateMutability": "view",
      "type": "function"
    },
    {
      "constant": true,
      "inputs": [
        {
          "name": "",
          "type": "uint256"
        }
      ],
      "name": "candidateList",
      "outputs": [
        {
          "name": "",
          "type": "bytes32"
        }
      ],
      "payable": false,
      "stateMutability": "view",
      "type": "function"
    },
    {
      "constant": true,
      "inputs": [
        {
          "name": "",
          "type": "address"
        }
      ],
      "name": "voterInfo",
      "outputs": [
        {
          "name": "voterAddress",
          "type": "address"
        },
        {
          "name": "tokensBought",
          "type": "uint256"
        }
      ],
      "payable": false,
      "stateMutability": "view",
      "type": "function"
    },
    {
      "constant": true,
      "inputs": [],
      "name": "balanceTokens",
      "outputs": [
        {
          "name": "",
          "type": "uint256"
        }
      ],
      "payable": false,
      "stateMutability": "view",
      "type": "function"
    },
    {
      "inputs": [
        {
          "name": "tokens",
          "type": "uint256"
        },
        {
          "name": "pricePerToken",
          "type": "uint256"
        },
        {
          "name": "candidateNames",
          "type": "bytes32[]"
        }
      ],
      "payable": false,
      "stateMutability": "nonpayable",
      "type": "constructor"
    },
    {
      "constant": false,
      "inputs": [],
      "name": "buy",
      "outputs": [
        {
          "name": "",
          "type": "uint256"
        }
      ],
      "payable": true,
      "stateMutability": "payable",
      "type": "function"
    },
    {
      "constant": true,
      "inputs": [
        {
          "name": "candidate",
          "type": "bytes32"
        }
      ],
      "name": "totalVotesFor",
      "outputs": [
        {
          "name": "",
          "type": "uint8"
        }
      ],
      "payable": false,
      "stateMutability": "view",
      "type": "function"
    },
    {
      "constant": false,
      "inputs": [
        {
          "name": "candidate",
          "type": "bytes32"
        },
        {
          "name": "votesInTokens",
          "type": "uint8"
        }
      ],
      "name": "voteForCandidate",
      "outputs": [],
      "payable": false,
      "stateMutability": "nonpayable",
      "type": "function"
    },
    {
      "constant": true,
      "inputs": [
        {
          "name": "candidate",
          "type": "bytes32"
        }
      ],
      "name": "validCandidate",
      "outputs": [
        {
          "name": "",
          "type": "bool"
        }
      ],
      "payable": false,
      "stateMutability": "view",
      "type": "function"
    },
    {
      "constant": true,
      "inputs": [
        {
          "name": "candidate",
          "type": "bytes32"
        }
      ],
      "name": "indexOfCandidate",
      "outputs": [
        {
          "name": "",
          "type": "uint256"
        }
      ],
      "payable": false,
      "stateMutability": "view",
      "type": "function"
    },
    {
      "constant": true,
      "inputs": [],
      "name": "tokensSold",
      "outputs": [
        {
          "name": "",
          "type": "uint256"
        }
      ],
      "payable": false,
      "stateMutability": "view",
      "type": "function"
    },
    {
      "constant": true,
      "inputs": [],
      "name": "getTotalTokens",
      "outputs": [
        {
          "name": "",
          "type": "uint256"
        }
      ],
      "payable": false,
      "stateMutability": "view",
      "type": "function"
    },
    {
      "constant": true,
      "inputs": [
        {
          "name": "user",
          "type": "address"
        }
      ],
      "name": "voterDetails",
      "outputs": [
        {
          "name": "",
          "type": "uint256"
        },
        {
          "name": "",
          "type": "uint256[]"
        }
      ],
      "payable": false,
      "stateMutability": "view",
      "type": "function"
    },
    {
      "constant": false,
      "inputs": [
        {
          "name": "account",
          "type": "address"
        }
      ],
      "name": "transferTo",
      "outputs": [],
      "payable": false,
      "stateMutability": "nonpayable",
      "type": "function"
    },
    {
      "constant": true,
      "inputs": [],
      "name": "allCandidates",
      "outputs": [
        {
          "name": "",
          "type": "bytes32[]"
        }
      ],
      "payable": false,
      "stateMutability": "view",
      "type": "function"
    }
  ],
  "bytecode": "0x6060604052341561000f57600080fd5b604051610e2d380380610e2d833981016040528080519060200190919080519060200190919080518201919050508060029080519060200190610053929190610071565b508260038190555082600481905550816005819055505050506100e9565b8280548282559060005260206000209081019282156100b3579160200282015b828111156100b2578251829060001916905591602001919060010190610091565b5b5090506100c091906100c4565b5090565b6100e691905b808211156100e25760008160009055506001016100ca565b5090565b90565b610d35806100f86000396000f3006060604052600436106100e6576000357c0100000000000000000000000000000000000000000000000000000000900463ffffffff1680632f265cf7146100eb578063392e66781461012c578063518ab2a81461016b5780635938750d146101945780637021939f146102295780637e1c0c091461026a5780637ff9b5961461029357806381c40715146102bc578063a03fa7e314610326578063a6f2ae3a1461035f578063b13c744b1461037d578063cdf58d35146103bc578063e4494a0f1461043c578063ecd098b014610465578063f08b82e6146104a0578063f2ab823d146104c9575b600080fd5b34156100f657600080fd5b6101106004808035600019169060200190919050506104fc565b604051808260ff1660ff16815260200191505060405180910390f35b341561013757600080fd5b610151600480803560001916906020019091905050610541565b604051808215151515815260200191505060405180910390f35b341561017657600080fd5b61017e6105a1565b6040518082815260200191505060405180910390f35b341561019f57600080fd5b6101cb600480803573ffffffffffffffffffffffffffffffffffffffff169060200190919050506105af565b6040518083815260200180602001828103825283818151815260200191508051906020019060200280838360005b838110156102145780820151818401526020810190506101f9565b50505050905001935050505060405180910390f35b341561023457600080fd5b61024e600480803560001916906020019091905050610699565b604051808260ff1660ff16815260200191505060405180910390f35b341561027557600080fd5b61027d6106b9565b6040518082815260200191505060405180910390f35b341561029e57600080fd5b6102a66106bf565b6040518082815260200191505060405180910390f35b34156102c757600080fd5b6102cf6106c5565b6040518080602001828103825283818151815260200191508051906020019060200280838360005b838110156103125780820151818401526020810190506102f7565b505050509050019250505060405180910390f35b341561033157600080fd5b61035d600480803573ffffffffffffffffffffffffffffffffffffffff16906020019091905050610727565b005b610367610787565b6040518082815260200191505060405180910390f35b341561038857600080fd5b61039e6004808035906020019091905050610893565b60405180826000191660001916815260200191505060405180910390f35b34156103c757600080fd5b6103f3600480803573ffffffffffffffffffffffffffffffffffffffff169060200190919050506108b7565b604051808373ffffffffffffffffffffffffffffffffffffffff1673ffffffffffffffffffffffffffffffffffffffff1681526020018281526020019250505060405180910390f35b341561044757600080fd5b61044f6108fb565b6040518082815260200191505060405180910390f35b341561047057600080fd5b61048a600480803560001916906020019091905050610901565b6040518082815260200191505060405180910390f35b34156104ab57600080fd5b6104b361097f565b6040518082815260200191505060405180910390f35b34156104d457600080fd5b6104fa60048080356000191690602001909190803560ff16906020019091905050610989565b005b600061050782610541565b151561051257600080fd5b600080836000191660001916815260200190815260200160002060009054906101000a900460ff169050919050565b600080600090505b60028054905081101561059657826000191660028281548110151561056a57fe5b906000526020600020900154600019161415610589576001915061059b565b8080600101915050610549565b600091505b50919050565b600060045460035403905090565b60006105b9610c90565b600160008473ffffffffffffffffffffffffffffffffffffffff1673ffffffffffffffffffffffffffffffffffffffff16815260200190815260200160002060010154600160008573ffffffffffffffffffffffffffffffffffffffff1673ffffffffffffffffffffffffffffffffffffffff1681526020019081526020016000206002018080548060200260200160405190810160405280929190818152602001828054801561068957602002820191906000526020600020905b815481526020019060010190808311610675575b5050505050905091509150915091565b60006020528060005260406000206000915054906101000a900460ff1681565b60035481565b60055481565b6106cd610ca4565b600280548060200260200160405190810160405280929190818152602001828054801561071d57602002820191906000526020600020905b81546000191681526020019060010190808311610705575b5050505050905090565b60003090508173ffffffffffffffffffffffffffffffffffffffff166108fc8273ffffffffffffffffffffffffffffffffffffffff16319081150290604051600060405180830381858888f19350505050151561078357600080fd5b5050565b6000806005543481151561079757fe5b04905060045481111515156107ab57600080fd5b33600160003373ffffffffffffffffffffffffffffffffffffffff1673ffffffffffffffffffffffffffffffffffffffff16815260200190815260200160002060000160006101000a81548173ffffffffffffffffffffffffffffffffffffffff021916908373ffffffffffffffffffffffffffffffffffffffff16021790555080600160003373ffffffffffffffffffffffffffffffffffffffff1673ffffffffffffffffffffffffffffffffffffffff16815260200190815260200160002060010160008282540192505081905550806004600082825403925050819055508091505090565b6002818154811015156108a257fe5b90600052602060002090016000915090505481565b60016020528060005260406000206000915090508060000160009054906101000a900473ffffffffffffffffffffffffffffffffffffffff16908060010154905082565b60045481565b600080600090505b60028054905081101561095557826000191660028281548110151561092a57fe5b90600052602060002090015460001916141561094857809150610979565b8080600101915050610909565b7fffffffffffffffffffffffffffffffffffffffffffffffffffffffffffffffff91505b50919050565b6000600354905090565b600080600061099785610901565b92507fffffffffffffffffffffffffffffffffffffffffffffffffffffffffffffffff83141515156109c857600080fd5b6000600160003373ffffffffffffffffffffffffffffffffffffffff1673ffffffffffffffffffffffffffffffffffffffff168152602001908152602001600020600201805490501415610a9f57600091505b600280549050821015610a9e57600160003373ffffffffffffffffffffffffffffffffffffffff1673ffffffffffffffffffffffffffffffffffffffff1681526020019081526020016000206002018054806001018281610a7c9190610cb8565b9160005260206000209001600080909190915055508180600101925050610a1b565b5b610b38600160003373ffffffffffffffffffffffffffffffffffffffff1673ffffffffffffffffffffffffffffffffffffffff168152602001908152602001600020600201805480602002602001604051908101604052809291908181526020018280548015610b2e57602002820191906000526020600020905b815481526020019060010190808311610b1a575b5050505050610c47565b600160003373ffffffffffffffffffffffffffffffffffffffff1673ffffffffffffffffffffffffffffffffffffffff168152602001908152602001600020600101540390508360ff168110151515610b9057600080fd5b83600080876000191660001916815260200190815260200160002060008282829054906101000a900460ff160192506101000a81548160ff021916908360ff1602179055508360ff16600160003373ffffffffffffffffffffffffffffffffffffffff1673ffffffffffffffffffffffffffffffffffffffff16815260200190815260200160002060020184815481101515610c2857fe5b9060005260206000209001600082825401925050819055505050505050565b6000806000809150600090505b8351811015610c86578381815181101515610c6b57fe5b90602001906020020151820191508080600101915050610c54565b8192505050919050565b602060405190810160405280600081525090565b602060405190810160405280600081525090565b815481835581811511610cdf57818360005260206000209182019101610cde9190610ce4565b5b505050565b610d0691905b80821115610d02576000816000905550600101610cea565b5090565b905600a165627a7a72305820af382e3c1e88a9d2cc5c73e34afae8557838fc4d244d3a70432614d9fbcb19bc0029",
  "source": "pragma solidity ^0.4.16;\n// We have to specify what version of compiler this code will compile with\n\n\ncontract Voting {\n\n    // We use the struct datatype to store the voter information.\n    struct Voter {\n        address voterAddress; // The address of the voter\n        uint tokensBought;    // The total no. of tokens this voter owns\n        uint[] tokensUsedPerCandidate; // Array to keep track of votes per candidate.\n        /* We have an array called candidateList initialized below.\n        Every time this voter votes with his/her tokens, the value at that\n        index is incremented. Example, if candidateList array declared\n        below has [\"Rama\", \"Nick\", \"Jose\"] and this\n        voter votes 10 tokens to Nick, the tokensUsedPerCandidate[1] \n        will be incremented by 10.\n        */\n    }\n\n    /* mapping field below is equivalent to an associative array or hash.\n    The key of the mapping is candidate name stored as type bytes32 and value is\n    an unsigned integer to store the vote count\n    */\n    mapping (bytes32 => uint8) public votesReceived;\n    mapping (address => Voter) public voterInfo;\n\n    /* Solidity doesn't let you pass in an array of strings in the constructor (yet).\n    We will use an array of bytes32 instead to store the list of candidates\n    */\n    bytes32[] public candidateList;\n    uint public totalTokens; // Total no. of tokens available for this election\n    uint public balanceTokens; // Total no. of tokens still available for purchase\n    uint public tokenPrice; // Price per token\n\n    /* This is the constructor which will be called once when you\n    deploy the contract to the blockchain. When we deploy the contract,\n    we will pass an array of candidates who will be contesting in the election\n    */\n    function Voting(uint tokens, uint pricePerToken, bytes32[] candidateNames) public {\n        candidateList = candidateNames;\n        totalTokens = tokens;\n        balanceTokens = tokens;\n        tokenPrice = pricePerToken;\n    }\n\n    /* This function is used to purchase the tokens. Note the keyword \n    'payable' below. By just adding that one keyword to a function, \n    your contract can now accept Ether from anyone who calls this \n    function. Accepting money can not get any easier than this!\n    */\n    function buy() public payable returns (uint) {\n        uint tokensToBuy = msg.value / tokenPrice;\n        require(tokensToBuy <= balanceTokens);\n        voterInfo[msg.sender].voterAddress = msg.sender;\n        voterInfo[msg.sender].tokensBought += tokensToBuy;\n        balanceTokens -= tokensToBuy;\n        return tokensToBuy;\n    }\n\n    // This function returns the total votes a candidate has received so far\n    function totalVotesFor(bytes32 candidate) public view returns (uint8) {\n        require(validCandidate(candidate));\n        return votesReceived[candidate];\n    }\n\n    // This function increments the vote count for the specified candidate. This\n    // is equivalent to casting a vote\n    function voteForCandidate(bytes32 candidate, uint8 votesInTokens) public {\n        uint index = indexOfCandidate(candidate);\n        require(index != uint(-1));\n\n        // msg.sender gives us the address of the account/voter who is trying\n        // to call this function\n        if (voterInfo[msg.sender].tokensUsedPerCandidate.length == 0) {\n            for (uint i = 0; i < candidateList.length; i++) {\n                voterInfo[msg.sender].tokensUsedPerCandidate.push(0);\n            }\n        }\n\n        // Make sure this voter has enough tokens to cast the vote\n        uint availableTokens = voterInfo[msg.sender].tokensBought - \n            totalTokensUsed(voterInfo[msg.sender].tokensUsedPerCandidate);\n        \n        require(availableTokens >= votesInTokens);\n\n        votesReceived[candidate] += votesInTokens;\n\n        // Store how many tokens were used for this candidate\n        voterInfo[msg.sender].tokensUsedPerCandidate[index] += votesInTokens;\n    }\n\n    function validCandidate(bytes32 candidate) public view returns (bool) {\n        for (uint i = 0; i < candidateList.length; i++) {\n            if (candidateList[i] == candidate) {\n                return true;\n            }\n        }\n        return false;\n    }\n\n    function indexOfCandidate(bytes32 candidate) public view returns (uint) {\n        for (uint i = 0; i < candidateList.length; i++) {\n            if (candidateList[i] == candidate) {\n                return i;\n            }\n        }\n        return uint(-1);\n    }\n\n    function tokensSold() public view returns (uint) {\n        return totalTokens - balanceTokens;\n    }\n\n    function getTotalTokens() public view returns (uint) {\n        return totalTokens;\n    }\n\n    function voterDetails(address user) public view returns (uint, uint[]) {\n        return (voterInfo[user].tokensBought, voterInfo[user].tokensUsedPerCandidate);\n    }\n\n    /* All the ether sent by voters who purchased the tokens is in this\n    contract's account. This method will be used to transfer out all those ethers\n    in to another account. *** The way this function is written currently, anyone can call\n    this method and transfer the balance in to their account. In reality, you should add\n    check to make sure only the owner of this contract can cash out.\n    */\n    function transferTo(address account) public {\n        address myAddress = this;\n        account.transfer(myAddress.balance);\n    }\n\n    function allCandidates() public view returns (bytes32[]) {\n        return candidateList;\n    }\n\n    // Return the sum of all the tokens used by this voter.\n    function totalTokensUsed(uint[] _tokensUsedPerCandidate) private pure returns (uint) {\n        uint totalUsedTokens = 0;\n        for (uint i = 0; i < _tokensUsedPerCandidate.length; i++) {\n            totalUsedTokens += _tokensUsedPerCandidate[i];\n        }\n        return totalUsedTokens;\n    }\n}\n",
  "sourcePath": "/Projects/Ethereum/ethereum-voting-demo/contracts/Voting.sol",
  "compiler": {
    "name": "solc",
    "version": "0.4.21+commit.dfe3193c.Emscripten.clang"
  },
  "schemaVersion": "2.0.0",
  "updatedAt": "2018-04-16T09:54:21.899Z"
}